:020000040800F2
:1000000000000320013F0008CD150008CF150008AF
:10001000D1150008D3150008D51500080000000010
:10002000000000000000000000000000D7150008DC
:10003000D915000800000000DB150008DD150008D8
:10004000593F0008593F0008593F0008593F000830
:10005000593F0008593F0008593F0008593F000820
:10006000593F0008593F0008593F0008593F000810
:10007000593F0008593F0008593F0008593F000800
:10008000593F0008593F0008593F0008593F0008F0
:10009000593F0008593F0008593F0008E51500087E
:1000A000593F0008593F0008593F0008593F0008D0
:1000B000593F0008593F0008593F0008593F0008C0
:1000C000593F0008593F0008593F0008593F0008B0
:1000D000593F0008593F0008593F0008593F0008A0
:1000E000593F0008593F0008593F0008593F000890
:1000F000593F0008593F0008593F0008593F000880
:10010000593F0008593F0008593F0008593F00086F
:10011000593F0008593F0008593F0008593F00085F
:10012000593F0008593F0008593F0008593F00084F
:0C013000593F0008593F0008593F0008E3
:1001400001F0FF01102A2BDB10F0070F08D010F888
:10015000013B013A8B422DD010F0070F42B3F6D18C
:10016000F0B441EA012141EA014122F007047FF0A5
:1001700000070023F0E80256083C85EA010586EAFC
:10018000010685FA47F5A3FA87F586FA47F6A5FA38
:1001900087F68EB9EED1F0BC01F0FF0102F0070244
:1001A00032B110F8013B013A83EA010313B1F8D1EF
:1001B0000020704701387047002D06BF35460338D0
:1001C000073815F0010F07D1013015F4807F02BF09
:1001D000013015F4C03F0130F0BC0138704700BF5A
:1001E00081F0004102E000BF83F0004330B54FEAE8
:1001F00041044FEA430594EA050F08BF90EA020F55
:100200001FBF54EA000C55EA020C7FEA645C7FEAE7
:10021000655C00F0E2804FEA5454D4EB5555B8BF0A
:100220006D420CDD2C4480EA020281EA030382EA7B
:10023000000083EA010180EA020281EA0303362D0D
:1002400088BF30BD11F0004F4FEA01314FF4801CE0
:100250004CEA113102D0404261EB410113F0004FF2
:100260004FEA03334CEA133302D0524263EB4303A9
:1002700094EA050F00F0A780A4F10104D5F1200E47
:100280000DDB02FA0EFC22FA05F2801841F10001A2
:1002900003FA0EF2801843FA05F359410EE0A5F176
:1002A00020050EF1200E012A03FA0EFC28BF4CF0A7
:1002B000020C43FA05F3C01851EBE37101F000455D
:1002C00007D54FF0000EDCF1000C7EEB00006EEB6A
:1002D0000101B1F5801F1BD3B1F5001F0CD34908F4
:1002E0005FEA30004FEA3C0C04F101044FEA44524B
:1002F00012F5800F80F09A80BCF1004F08BF5FEAD2
:10030000500C50F1000041EB045141EA050130BDB1
:100310005FEA4C0C404141EB0101013C28BFB1F5C3
:10032000801FE9D291F0000F04BF01460020B1FA0E
:1003300081F308BF2033A3F10B03B3F120020CDAE1
:100340000C3208DD02F1140CC2F10C0201FA0CF0BF
:1003500021FA02F10CE002F11402D8BFC2F1200C24
:1003600001FA02F120FA0CFCDCBF41EA0C019040DA
:10037000E41AA2BF01EB0451294330BD6FEA040423
:100380001F3C1CDA0C340EDC04F11404C4F120020E
:1003900020FA04F001FA02F340EA030021FA04F320
:1003A00045EA030130BDC4F10C04C4F1200220FA77
:1003B00002F001FA04F340EA0300294630BD21FAB5
:1003C00004F0294630BD94F0000F83F4801306BF7B
:1003D00081F480110134013D4EE77FEA645C18BF6F
:1003E0007FEA655C29D094EA050F08BF90EA020F06
:1003F00005D054EA000C04BF1946104630BD91EAFE
:10040000030F1EBF0021002030BD5FEA545C05D100
:100410004000494128BF41F0004130BD14F580043F
:100420003CBF01F5801130BD01F0004545F0FE41B3
:1004300041F470014FF0000030BD7FEA645C1ABFE8
:10044000194610467FEA655C1CBF0B46024650EA1F
:10045000013406BF52EA033591EA030F41F400214B
:1004600030BD00BF90F0000F04BF0021704730B5D1
:100470004FF4806404F132044FF000054FF00001A6
:1004800050E700BF90F0000F04BF0021704730B567
:100490004FF4806404F1320410F0004548BF40423C
:1004A0004FF000013EE700BF42004FEAE2014FEA91
:1004B00031014FEA02701FBF12F07F4393F07F4F6C
:1004C00081F06051704732F07F4208BF704793F06F
:1004D0007F4F04BF41F40021704730B54FF4607482
:1004E00001F0004521F000411CE700BF50EA010285
:1004F00008BF704730B54FF000050AE050EA01022E
:1005000008BF704730B511F0004502D5404261EB9D
:1005100041014FF4806404F132045FEA915C3FF4DE
:10052000D8AE4FF003025FEADC0C18BF03325FEA7B
:10053000DC0C18BF033202EBDC02C2F1200300FA2C
:1005400003FC20FA02F001FA03FE40EA0E0021FA51
:1005500002F11444BDE600BF70B54FF0FF0C4CF43F
:10056000E06C1CEA11541DBF1CEA135594EA0C0FF1
:1005700095EA0C0F00F0DEF82C4481EA030621EA2C
:100580004C5123EA4C5350EA013518BF52EA033567
:1005900041F4801143F4801338D0A0FB02CE4FF019
:1005A0000005E1FB02E506F00042E0FB03E54FF049
:1005B0000006E1FB03569CF0000F18BF4EF0010E41
:1005C000A4F1FF04B6F5007F64F5407404D25FEA3D
:1005D0004E0E6D4146EB060642EAC62141EA5551F0
:1005E0004FEAC52040EA5E504FEACE2EB4F1FD0C32
:1005F00088BFBCF5E06F1ED8BEF1004F08BF5FEAB0
:10060000500E50F1000041EB045170BD06F0004661
:1006100046EA010140EA020081EA0301B4EB5C040E
:10062000C2BFD4EB0C0541EA045170BD41F4801106
:100630004FF0000E013C00F3AB8014F1360FDEBF2B
:10064000002001F0004170BDC4F10004203C35DA07
:100650000C341BDC04F11404C4F1200500FA05F38A
:1006600020FA04F001FA05F240EA020001F000422B
:1006700021F0004110EBD37021FA04F642EB0601A1
:100680005EEA430E08BF20EAD37070BDC4F10C04CB
:10069000C4F1200500FA04F320FA05F001FA04F28F
:1006A00040EA020001F0004110EBD37041F100017B
:1006B0005EEA430E08BF20EAD37070BDC4F1200586
:1006C00000FA05F24EEA020E20FA04F301FA05F2EE
:1006D00043EA020321FA04F001F0004121FA04F296
:1006E00020EA020000EBD3705EEA430E08BF20EA66
:1006F000D37070BD94F0000F0FD101F000464000A0
:1007000041EB010111F4801F08BF013CF7D041EA21
:10071000060195F0000F18BF704703F00046520025
:1007200043EB030313F4801F08BF013DF7D043EAF6
:100730000603704794EA0C0F0CEA135518BF95EAAC
:100740000C0F0CD050EA410618BF52EA4306D1D133
:1007500081EA030101F000414FF0000070BD50EA52
:10076000410606BF1046194652EA430619D094EADC
:100770000C0F02D150EA013613D195EA0C0F05D1C6
:1007800052EA03361CBF104619460AD181EA03011A
:1007900001F0004141F0FE4141F470014FF00000D2
:1007A00070BD41F0FE4141F4780170BD70B54FF06D
:1007B000FF0C4CF4E06C1CEA11541DBF1CEA1355ED
:1007C00094EA0C0F95EA0C0F00F0A7F8A4EB0504CF
:1007D00081EA030E52EA03354FEA013100F08880C6
:1007E0004FEA03334FF0805545EA131343EA12638F
:1007F0004FEA022245EA111545EA10654FEA002644
:100800000EF000419D4208BF964244F1FD0404F5FC
:10081000407402D25B084FEA3202B61A65EB030558
:100820005B084FEA32024FF480104FF4002CB6EB15
:10083000020E75EB030E22BFB61A754640EA0C0095
:100840005B084FEA3202B6EB020E75EB030E22BFD5
:10085000B61A754640EA5C005B084FEA3202B6EB16
:10086000020E75EB030E22BFB61A754640EA9C00D5
:100870005B084FEA3202B6EB020E75EB030E22BFA5
:10088000B61A754640EADC0055EA060E18D04FEA63
:10089000051545EA16754FEA06164FEAC30343EA03
:1008A00052734FEAC2025FEA1C1CC0D111F4801FD0
:1008B0000BD141EA00014FF000004FF0004CB6E7C9
:1008C00011F4801F04BF01430020B4F1FD0C88BF68
:1008D000BCF5E06F3FF6AFAEB5EB030C04BFB6EB73
:1008E000020C5FEA500C50F1000041EB045170BD66
:1008F0000EF0004E4EEA113114EB5C04C2BFD4EB93
:100900000C0541EA045170BD41F480114FF0000E16
:10091000013C90E645EA060E8DE60CEA135594EA92
:100920000C0F08BF95EA0C0F3FF43BAF94EA0C0F95
:100930000AD150EA01347FF434AF95EA0C0F7FF40A
:1009400025AF104619462CE795EA0C0F06D152EA5E
:1009500003353FF4FDAE1046194622E750EA410642
:1009600018BF52EA43067FF4C5AE50EA41047FF453
:100970000DAF52EA43057FF4EBAE12E74FEA4102B6
:1009800012F5001215D211D56FF47873B3EB6252E1
:1009900012D94FEAC12343F0004343EA505311F008
:1009A000004F23FA02F018BF404270474FF000009A
:1009B000704750EA013005D111F0004008BF6FF0D8
:1009C000004070474FF00000704700BF4A0011D24E
:1009D00012F5001211D20DD56FF47873B3EB625299
:1009E0000ED44FEAC12343F0004343EA505323FAA5
:1009F00002F070474FF00000704750EA013002D11A
:100A00004FF0FF3070474FF0000070474FEA41024F
:100A1000B2F1E04324BFB3F5001CDCF1FE5C0DD95C
:100A200001F0004C4FEAC0024CEA5070B2F1004FA6
:100A300040EB830008BF20F00100704711F0804FA9
:100A400021D113F13872BCBF01F00040704741F46E
:100A500080114FEA5252C2F11802C2F1200C10FA72
:100A60000CF320FA02F018BF40F001004FEAC12356
:100A70004FEAD32303FA0CFC40EA0C0023FA02F3FA
:100A80004FEA4303CCE77FEA625307D150EA0133D0
:100A90001EBF4FF0FE4040F44000704701F00040A0
:100AA00040F0FE4040F40000704700BF53B94AB91F
:100AB000002908BF00281CBF4FF0FF314FF0FF3066
:100AC00000F00CB8ADF1080C6DE904CE03F04AFF5C
:100AD000DDF804E0DDE9022304B07047704700BF91
:100AE00010B5054C237833B9044B13B10448AFF368
:100AF00000800123237010BD68000020000000006A
:100B0000204C000808B5034B1BB103490348AFF361
:100B1000008008BD000000006C000020204C000890
:100B2000F0B58BB0002405940694079408940994BA
:100B30004FF0B043DA6C42F00402DA64DA6C02F08F
:100B400004020492049ADA6C42F00202DA64DA6C6B
:100B500002F002020392039ADA6C42F00102DA64B4
:100B6000DA6C02F001020292029ADA6C42F0080298
:100B7000DA64DB6C03F008030193019B2E4F2246DD
:100B800040F63361384601F0F6F82C4D22462F210D
:100B9000284601F0F0F8224603214FF0904001F082
:100BA000EAF801223C214FF0904001F0E4F840F6D1
:100BB00033630593012606960794089405A93846E1
:100BC00000F0F8FF2F23059306960794089405A9D3
:100BD000284600F0EFFF3F230593069607940894FC
:100BE00005A94FF0904000F0E5FF4FF470730593B6
:100BF0004FF4881306930223079305A94FF0904002
:100C000000F0D8FF102305930694079405A9284601
:100C100000F0D0FF032305930694079405A9084824
:100C200000F0C8FF22462146172000F09BFF172046
:100C300000F0A8FF0BB0F0BD000400480008004819
:100C4000000C0048034B1A6800235362536A834226
:100C5000FCD37047FC00002008B500F01BFF08BD66
:100C600008B5012202214FF0904001F084F81420D1
:100C7000FFF7E8FF002202214FF0904001F07BF8DF
:100C80001420FFF7DFFF08BD38B504460D4D00F016
:100C900001020121284601F06EF8C4F3400202214E
:100CA000284601F068F8C4F380020421284601F0C8
:100CB00062F8C4F3C0020821284601F05CF8FFF78F
:100CC000CFFF38BD0008004810B5044600220121BE
:100CD0004FF0904001F04FF82009FFF7D5FF204674
:100CE000FFF7D2FF2820FFF7ADFF10BD10B5044677
:100CF000012211464FF0904001F03DF82009FFF726
:100D0000C3FF2046FFF7C0FF002201214FF09040B3
:100D100001F031F82C20FFF795FF10BD08B58901CF
:100D2000C9B2084460F07F00C0B2FFF7CDFF08BD34
:100D300008B51E20FFF790FF0320FFF7A5FF052051
:100D4000FFF78AFF0320FFF79FFF9620FFF77AFF48
:100D50000320FFF799FF0220FFF796FF2820FFF7F7
:100D6000B3FF0C20FFF7B0FF0620FFF7ADFF08BD73
:100D700008B50120FFF7A8FF0220FFF76DFF022052
:100D8000FFF7A2FF0220FFF767FF08BD10B504467A
:100D900002E00134FFF7AAFF20780028F9D110BD46
:100DA00010B500F06BFE04461021064800F0DCFF91
:100DB00030B100F063FE001BFE28F5D9002000E0F2
:100DC000012010BD0004004838B500F057FE04466D
:100DD0001021074800F0C8FF054628B900F04EFE74
:100DE000001BFE28F4D900E00125284638BD00BFCD
:100DF00000040048F0B587B00024019402940394E5
:100E0000049405941027019701260296104D01A91C
:100E1000284600F0CFFE22463946284600F0ABFFB8
:100E2000142000F037FE32463946284600F0A3FF72
:100E30002820FFF707FF0294039601A9284600F037
:100E4000B9FEFFF7ADFFFFF7BFFF07B0F0BD00BF72
:100E50000004004838B500252C4609E0C4F107031A
:100E6000012098402843C5B2FFF79AFF0134E4B24D
:100E7000072C12D8FFF7A8FF2820FFF7E3FE102168
:100E8000074800F071FF0028E8D1C4F107020123F0
:100E90009340DB435BB21D40E6E7284638BD00BF08
:100EA00000040048094B1B7873B1094B1B7813B938
:100EB000074B1870704703EB830300EB4300044BB0
:100EC0001870024B00221A70704700BF8400002087
:100ED0000900002038B5044600F0D0FDD04B186062
:100EE000D04B1B68C01AB0F5FA7F00D838BDCE4988
:100EF0004FF470730B6000254D6002238B60CD6052
:100F00004FF0904000F056FE012204214FF0904037
:100F100000F031FF2A4608214FF0904000F02BFFEF
:100F20002A4610214FF0904000F025FF2A4620214C
:100F30004FF0904000F01FFF402C00F0A480802C68
:100F400000F0B080B4F5807F00F0BB80B4F5007F86
:100F500000F0C780002204214FF0904000F00BFF0A
:100F6000012208214FF0904000F005FF00221021DF
:100F70004FF0904000F0FFFE002220214FF0904003
:100F800000F0F9FE402C00F0B980802C00F0C58004
:100F9000B4F5807F00F0D080B4F5007F00F0DC80F5
:100FA000002204214FF0904000F0E5FE00220821CD
:100FB0004FF0904000F0DFFE012210214FF09040F2
:100FC00000F0D9FE002220214FF0904000F0D3FE27
:100FD000402C00F0CE80802C00F0DA80B4F5807FC9
:100FE00000F0E580B4F5007F00F0F18000220421DC
:100FF0004FF0904000F0BFFE002208214FF09040DB
:1010000000F0B9FE002210214FF0904000F0B3FE36
:10101000012220214FF0904000F0ADFE402C00F066
:10102000E380802C00F0EC80B4F5807F00F000813C
:10103000B4F5007F00F00F81012204214FF09040B1
:1010400000F099FE012208214FF0904000F093FE3D
:10105000012210214FF0904000F08DFE012220214E
:101060004FF0904000F087FE6F494FF488134B60BB
:1010700002238B604FF0904000F09CFD684B1A6893
:10108000684B1A6032E740214FF0904000F06CFE50
:1010900000283FF454AF0120FFF704FF634B3122D7
:1010A0001A7057E780214FF0904000F05DFE002855
:1010B0003FF448AF0220FFF7F5FE5C4B32221A7076
:1010C00048E74FF480714FF0904000F04DFE00284B
:1010D0003FF43CAF0320FFF7E5FE544B33221A7078
:1010E00038E74FF400714FF0904000F03DFE0028CB
:1010F0003FF430AF4D4B41221A702BE740214FF0A7
:10110000904000F031FE00283FF43FAF0420FFF78D
:10111000C9FE464B34221A7042E780214FF09040BE
:1011200000F022FE00283FF433AF0520FFF7BAFE9F
:101130003E4B35221A7033E74FF480714FF09040E8
:1011400000F012FE00283FF427AF0620FFF7AAFEAA
:10115000364B36221A7023E74FF400714FF090405F
:1011600000F002FE00283FF41BAF304B42221A7001
:1011700016E740214FF0904000F0F6FD00283FF4C4
:101180002AAF0720FFF78EFE284B37221A702DE773
:1011900080214FF0904000F0E7FD00283FF41EAFA3
:1011A0000820FFF77FFE214B38221A701EE74FF40C
:1011B00080714FF0904000F0D7FD00283FF412AF4F
:1011C0000920FFF76FFE194B39221A700EE74FF412
:1011D00000714FF0904000F0C7FD00283FF406AFCB
:1011E000124B43221A7001E740214FF0904000F06B
:1011F000BBFD00283FF415AF0C4B2A221A701BE7E9
:1012000080214FF0904000F0AFFD00283FF40CAF7C
:101210000020FFF747FE054B30221A700CE700BF95
:101220008C000020900000209C0000208500002001
:101230004FF480714FF0904000F096FD00283FF48D
:10124000F7AE0B4B01221A700A4B00221A700A4BA0
:1012500023221A70F0E64FF400714FF0904000F036
:1012600083FD00283FF4E8AE034B44221A70E3E606
:1012700084000020090000208500002072B6FEE7EF
:1012800030B59BB04822002108A802F087FE002458
:1012900001940294039404940594069407944FF0E7
:1012A000B045EB6823F07003EB60EB6823F00303B9
:1012B00043F00103EB6000F0F5FDD5F8903023F02A
:1012C0001803C5F890301C4A136823F4C06343F434
:1012D00000731360136803F4C0630093009B27231B
:1012E00008934FF48033099301230A934FF48072DB
:1012F0000B920F9340230C9310946023119313943B
:1013000008A800F0D5FE90B96F2301930223029341
:10131000002303930493059306930793012101A8E7
:1013200001F052FA28B901F003FE1BB030BDFFF7FF
:10133000A5FFFFF7A3FF00BF0004005800B595B05C
:1013400050220021684602F029FE4FF4005300931A
:10135000684601F074FC10B915B05DF804FBFFF7A6
:101360008DFF00000000000000B587B000F064FBB6
:10137000FFF786FFFFF7E2FFFFF7D2FB00F024F94B
:1013800000F0F8F900F04AFA00F0C0FA00F06CF949
:10139000774801F005FF0021764802F03DF9FFF79C
:1013A000C7FCFFF7E5FC00224FF40071724800F023
:1013B000E2FC01222021714800F0DDFC704BFF228D
:1013C0005A63BFE0FFF716FD002800F0C780002039
:1013D00002900390049005900146FFF79FFCFFF7F1
:1013E00039FD684B1870FFF735FD674B1870FFF734
:1013F00031FD664C2070FFF72DFD654B187023788A
:1014000008EE103AB8EE488AFFF73CF80022614B2C
:10141000FFF7CCF9FFF7FAFA07EE900A38EE278AC1
:10142000F2EE027A28EE278AB1EE047AC8EE077A45
:101430009FED597A77EE877A584BC3ED007A584B77
:101440001B78002B33D1574B1B7807EE103AB8EEC0
:10145000C77AF4EEC77AF1EE10FA5DDD524B1B78D5
:10146000002B52D04D4B1868FFF71EF841EC100BC3
:1014700003F01AFA55EC104B4A4B1878FFF702F8B4
:1014800002460B4620462946FEF7AEFE0022474B99
:10149000FFF78CF90022464BFFF75EF832A3D3E941
:1014A0000023FEF7A3FEFFF791FA354B58633B4B41
:1014B0001868FEF7F9FF41EC100B03F0F5F951EC59
:1014C000100B314B1D782F4B1C78FFF757FA00900B
:1014D0002B462246374902A802F040FD02A8FFF73A
:1014E00055FC01210020FFF719FC2E4B1A78CAB9D0
:1014F000314B0FCB06AC04E90F0002A8FFF746FC06
:1015000000F0BCFA2D4B186028E01D4BFF225A63F7
:10151000642000F0BFFAA5E70023234A1370184A9D
:101520005363C4E7264902A802F018FDE5E700234B
:1015300002930393049305931A4B1A78204902A847
:1015400002F00CFD00F09AFA1E4B18601B4B1B6852
:10155000C01A40F6C41398423FF634AF104B1B78C4
:10156000002BEFD0E3E700BF000000000060684000
:10157000FC000020B00000200004004800080048E3
:10158000004401409B0000209A00002099000020A8
:101590009800002000002440000000429400002039
:1015A00084000020090000200800002000001440F2
:1015B00000804940644C0008784C000888000020F6
:1015C000884C00088C00002070477047FEE7FEE75B
:1015D000FEE7FEE7FEE770477047704708B500F08A
:1015E00041FA08BD08B5402000F0CAFB802000F099
:1015F000C7FB4FF4807000F0C3FB4FF4007000F0A5
:10160000BFFB08BD164AD2F8883043F47003C2F815
:1016100088304FF0B0431A6842F001021A604FF46C
:10162000E0229A601968A2F1A262A2F205120A40B1
:101630001A60D3F8942022F00502C3F89420D3F85E
:10164000982022F00102C3F89820064ADA601A6155
:101650001A6822F480221A6000229A61704700BF43
:1016600000ED00E00010042200B589B000230493CF
:1016700005930693079301930293039314484FF045
:10168000804202601F2242608360124AC26003618E
:10169000836101F0EDFD90B94FF48053049304A9E8
:1016A0000B4801F029FF68B900230193039301A9B6
:1016B000074802F049F840B909B05DF804FBFFF7AC
:1016C000DDFDE9E7FFF7DAFDEEE7FFF7D7FDF3E72A
:1016D000FC000020A086010082B00368B3F1804FB7
:1016E00004D00E4A93420DD002B070474FF0B04381
:1016F0009A6D42F001029A659B6D03F0010300931D
:10170000009BF1E74FF0B0431A6E42F400321A66C4
:101710001B6E03F400330193019BE5E70044014095
:1017200000B587B0002301930293039304930593BC
:1017300002680E4B9A4202D007B05DF804FB4FF0EE
:10174000B043DA6C42F00202DA64DB6C03F00203AD
:101750000093009B4FF480730193022302930E23A6
:10176000059301A9024800F025FAE5E7004401408D
:101770000004004810B594B000240D940E940F940A
:10178000109411941294139434222146684602F066
:1017900005FC2048204B03601F2343608460FF2327
:1017A000C36004614461846101F062FD30BB19488B
:1017B00001F08EFD28BB60230D9300220E920F9244
:1017C00010921192129213920DA9124801F0EAFDA3
:1017D000D0B90023009301930293039304934FF431
:1017E0000052059206930C9369460A4801F0E0FF07
:1017F00068B90848FFF794FF14B010BDFFF73EFD2D
:10180000D5E7FFF73BFDD6E7FFF738FDE1E7FFF748
:1018100035FDEEE7B00000200044014008B5174850
:10182000174B03604FF41653436000238360C3607B
:1018300003610C2242618361C3610362436283627C
:1018400002F075FA70B900210C4802F0E8FA60B9AC
:1018500000210A4802F008FB50B9084802F0C0FA1B
:1018600048B908BDFFF70AFDEDE7FFF707FDEFE711
:10187000FFF704FDF1E7FFF701FDF2E74801002063
:101880000038014010B59CB0044600211791189112
:1018900019911A911B91502203A802F07FFB226834
:1018A000184B9A4201D01CB010BD0123039303A82A
:1018B00001F0C5F910BB4FF0B0431A6E42F48042FC
:1018C0001A661A6E02F480420292029ADA6C42F0B0
:1018D0000202DA64DB6C03F002030193019BC02374
:1018E0001793022318930123199300231A930723B4
:1018F0001B9317A9044800F05DF9D4E7FFF7BEFC7D
:10190000D9E700BF003801400004004808B50A4884
:101910000A4B0360082343600223836003610023B2
:1019200043618361C361036200F038FA00B908BD06
:10193000FFF7A4FCFBE700BFDC01002000680040CB
:1019400010B59CB0044600211791189119911A9175
:101950001B91502203A802F021FB2268214B9A42DE
:1019600001D01CB010BD4FF480730393182304936F
:101970004FF4003305934FF0007306934FF000537C
:1019800007934FF0807308934FF08063109303A880
:1019900001F055F918BB4FF0B044E36C43F001037C
:1019A000E364E36C03F001030293029B4FF4C05322
:1019B000179302231893002319931A930A231B9356
:1019C00017A94FF0904000F0F5F8A36D43F0806345
:1019D000A365A36D03F080630193019BC1E7FFF74B
:1019E0004DFCD8E700680040114B1B780BB9012073
:1019F000704710B5044600F04BFB0D4B1A784FF4BE
:101A00007A73B3FBF2F3B0FBF3F000F0BFF868B900
:101A10000F2C01D901200AE0002221464FF0FF30AF
:101A200000F0A0F8034B1C60002000E0012010BD76
:101A3000100000201400002010B5094A136843F478
:101A400080731360032000F07BF80020FFF7CCFFC9
:101A500010B10124204610BD0446FFF7B6FDF9E79A
:101A600000400058034B1B78034A11680B44136075
:101A7000704700BF10000020D0040020014B186800
:101A8000704700BFD0040020014B1868704700BFAA
:101A90001400002038B50446FFF7F0FF0546B4F106
:101AA000FF3F02D0044B1B781C44FFF7E7FF401BAD
:101AB000A042FAD338BD00BF10000020002807DB89
:101AC00000F01F02400901239340024A42F82030EF
:101AD000704700BF00E100E0002808DB0901C9B23F
:101AE00000F1604000F5614080F80013704700F09D
:101AF0000F000901C9B2014B1954704714ED00E001
:101B000000B500F00700C0F1070CBCF1040F28BFBE
:101B10004FF0040C031D062B0FD9C31E4FF0FF3EE0
:101B20000EFA0CF021EA000199400EFA03FE22EAB7
:101B30000E0241EA02005DF804FB0023EEE700001C
:101B4000074AD36823F4E0631B041B0C000200F473
:101B5000E060034343F0BF6343F40033D360704756
:101B600000ED00E010B50446054BD868C0F3022034
:101B7000FFF7C6FF01462046FFF7AEFF10BD00BFCE
:101B800000ED00E008B5FFF799FF08BD0138B0F19E
:101B9000807F0BD24FF0E0235861054AF02182F894
:101BA00023100020986107221A61704701207047B6
:101BB00000ED00E0F0B5002366E085685E000324D8
:101BC000B44025EA0405CC68B4402C4384604568E1
:101BD00025EA0C054C68C4F300149C402C43446077
:101BE00063E0DD08083550F8254003F0070C4FEAA4
:101BF0008C0C4FF00F0E0EFA0CFE24EA0E0E0C6940
:101C000004FA0CF444EA0E0440F8254064E004248D
:101C100000E0002404FA0EF42C430CF1020C4F4DAA
:101C200045F82C404E4C2568D44325EA02064F68FF
:101C300017F4801F01D042EA0506494D2E606D68F9
:101C400004EA05064F6817F4001F01D042EA0506B2
:101C5000434D6E60D5F8805004EA05064F6817F4CE
:101C6000803F01D042EA05063D4DC5F88060D5F8B9
:101C700084502C404E6816F4003F01D042EA05041F
:101C8000374AC2F8844001330A6832FA03F464D058
:101C90004FF0010C0CFA03FC1CEA0202F3D04C6872
:101CA00004F00304013C012C87D94C6804F00304C0
:101CB000032C0CD0C4685D004FF0030C0CFA05FC3B
:101CC00024EA0C0C8C68AC4044EA0C04C4604C68F8
:101CD00004F00304022C84D004684FEA430E4FF052
:101CE000030C0CFA0EFC24EA0C0C4C6804F0030400
:101CF00004FA0EF444EA0C0404604C6814F4403F07
:101D0000C1D04FEA930C0CF10205144C54F8255045
:101D100003F0030E4FEA8E0E0F2404FA0EF425EAA8
:101D20000405B0F1904F3FF474AF0E4CA0420ED0BA
:101D300004F58064A0420CD004F58064A0420AD06F
:101D400004F58064A0423FF462AF072462E70124F7
:101D500060E702245EE703245CE7F0BD0000014079
:101D600000080058000400480369194201D001200E
:101D70007047002070470AB18161704781627047E7
:101D800008B5054BDB68034200D108BD024BD860A3
:101D9000FFF7A0F8F9E700BF00080058002869D055
:101DA00030B587B0044690F8A9323BB1032384F8DC
:101DB000A932206802F07DF800231BE080F8A832E9
:101DC000FFF7BEFDF2E75A1C02EB820104EBC101F2
:101DD0000120487002EB820104F8313004EBC100AD
:101DE0000021C17003EB830004EBC0008163C16379
:101DF0000164D3B260688342E5D3002316E003EBAD
:101E0000830204EBC202002182F8691182F8683172
:101E100082F86B11C2F87811C2F87C1103EB8302CF
:101E200004EBC202C2F880110133DBB29842E6D85B
:101E3000A4465CF8105BEE46BCE80F00AEE80F006D
:101E4000DCF80030CEF80030231D0ECB284602F01F
:101E50003AF8002384F82430012384F8A932E36996
:101E6000012B02D0002007B030BD204600F004F85E
:101E70000020F8E701207047034602680121C0F8FE
:101E8000E812002083F8E002B2F854309BB20B4312
:101E9000A2F85430B2F854309BB243F00203A2F8D7
:101EA00054307047024A136843F4807313607047DC
:101EB00000040058024B186800F4C060704700BF6F
:101EC0000004005830B58DB005468E462B4C94E882
:101ED0000F000DF1300C0CE90F0005AB04F11002FE
:101EE00007CA83E807000DF1040C1C3494E80F00C6
:101EF0008CE80F00BEF5007F07D0002314E00CAA89
:101F000002EB830353F82C5C1EE00023032B08D85C
:101F10000CAA02EB830252F8102CAA42EFD2013332
:101F2000F4E7002510E00133022B0CD80CAA02EBD9
:101F3000830252F81C2CAA42F5D30CAA02EB8303AD
:101F400053F82C5C00E000250D4A136823F00703CA
:101F50002B431360FFF792FD0446094B1B6803F007
:101F60000703AB4206D0FFF789FD001B0228F4D916
:101F7000032000E000200DB030BD00BF384C000849
:101F80000040005810B5B02816D90E4BDC6A4FF04F
:101F9000B043D3F8083103F00F030B4A52F8233053
:101FA000B4FBF3F4FFF786FF0146084BA3FB0434B0
:101FB000A00CFFF787FF10BDC0F30310014B53F8CF
:101FC0002040E4E7984C0008F84C000883DE1B43EF
:101FD0004FF0B0439B6813F00C030DD14FF0B043AA
:101FE0001B6803F0F003B02B04D81B09254A52F8F4
:101FF00023007047B023F8E7042B3ED0082B10D005
:102000004FF0B043DB6803F00303022B31D0032B06
:102010000FD14FF0B0431B6813F4801F2BD11A4827
:1020200012E04FF0B0431B6813F4801F27D017480D
:1020300070474FF0B0431B6803F0F003B02B16D885
:102040001B09104A52F823004FF0B042D368C3F383
:10205000062303FB00F0D368C3F302130133B0FB84
:10206000F3F0D3685B0F0133B0FBF3F07047B0239C
:10207000E6E70648E8E70548E6E70448704702480F
:10208000704700BF984C00080048E8010024F400A5
:1020900008B5FFF79DFF4FF0B0439B68C3F30313F0
:1020A000024A52F82330B0FBF3F008BDF84C0008A8
:1020B000002800F0728338B50446036813F0200F3F
:1020C0002DD04FF0B0429368D26802F0030213F0B3
:1020D0000C0358D00C2B54D0E369002B00F0A080E7
:1020E0004FF0B042136843F001031360FFF7C6FCE2
:1020F00005464FF0B0431B6813F0020F00F08880D4
:10210000636A4FF0B042116821F0F0010B43136095
:10211000216A536823F47F4343EA01235360236811
:1021200013F0010F00F09A804FF0B042936803F073
:102130000C03D26802F00302082B00F08B800C2BFA
:1021400000F085806368B3F5803F00F0B0804FF009
:10215000B042136823F4803313606368002B00F0EF
:10216000AD80FFF78BFC05464FF0B0431B6813F4BE
:10217000003F73D1FFF782FC401B6428F4D9032091
:1021800016E3012AA8D1E369002B00F00883606AF6
:102190004FF0B0431B6803F0F003B02B21D89842F6
:1021A00021D9FFF7EFFE002840F0FB82636A4FF071
:1021B000B042116821F0F0010B431360216A5368AB
:1021C00023F47F4343EA01235360FFF761FFBF4BD2
:1021D0001860BF4B1868FFF707FC00289FD001204C
:1021E000E6E2B023DBE74FF0B042136823F0F003E0
:1021F00018431060216A536823F47F4343EA0123A4
:102200005360606AFFF7BEFE0028DED00120CFE2F7
:10221000FFF734FC401B02287FF66BAF0320C7E2B8
:102220004FF0B042136823F001031360FFF726FC60
:1022300005464FF0B0431B6813F0020F3FF46FAF39
:10224000FFF71CFC401B0228F3D90320B0E2032A4D
:102250007FF478AF6368002B00F0A582236813F049
:10226000020F54D04FF0B042936803F00C03D268D1
:1022700002F00302042B33D00C2B2FD0E368002B89
:1022800071D04FF0B042136843F480731360FFF7CE
:10229000F5FB05464FF0B0431B6813F4806F2DD15A
:1022A000FFF7ECFB401B0228F4D9032080E24FF03B
:1022B000B042136843F4803313604EE7FFF7DEFB50
:1022C00005464FF0B0431B6813F4003FC6D0FFF73C
:1022D000D5FB401B6428F4D9032069E2022ACDD142
:1022E000E368002B00F0618221694FF0B04253682F
:1022F00023F0FE4343EA0163536008E021694FF095
:10230000B042536823F0FE4343EA016353602368FD
:1023100013F0180F00F0DE806269002A00F0A3803D
:1023200013F0100F70D04FF0B043D3F8943013F087
:10233000020F2ED14FF0B042D2F8943043F0010397
:10234000C2F89430FFF79AFB05464FF0B043D3F83C
:10235000943013F0020F1CD1FFF790FB401B0228B2
:10236000F3D9032024E24FF0B042136823F48073C2
:102370001360FFF783FB05464FF0B0431B6813F46F
:10238000806FC4D0FFF77AFB401B0228F4D90320EA
:102390000EE24FF0B042D2F8943043F00403C2F89A
:1023A0009430FFF76BFB05464FF0B043D3F8943001
:1023B00013F0080F06D1FFF761FB401B0328F3D988
:1023C0000320F5E1A1694FF0B042D2F8943023F434
:1023D000706343EA0123C2F89430D2F8943023F0BA
:1023E0000103C2F89430FFF749FB05464FF0B043B4
:1023F000D3F8943013F0020F6CD0FFF73FFB401B73
:102400000228F3D90320D3E14FF0B042D2F8943040
:1024100043F00103C2F89430FFF730FB05464FF05C
:10242000B043D3F8943013F0020F06D1FFF726FB28
:10243000401B0228F3D90320BAE14FF0B042D2F892
:10244000943023F00403C2F894304FF0B043D3F833
:10245000943013F0080F3DD0FFF710FB401B03280A
:10246000F3D90320A4E14FF0B042D2F8943023F026
:102470000403C2F89430FFF701FB05464FF0B04368
:10248000D3F8943013F0080F18D14FF0B042D2F8BF
:10249000943023F00103C2F89430FFF7EFFA0546B9
:1024A0004FF0B043D3F8943013F0020F12D0FFF77F
:1024B000E5FA401B0228F3D9032079E1FFF7DEFAA1
:1024C000401B0328DAD9032072E100BF0C00002072
:1024D00014000020236813F0040F68D0B74B1B686A
:1024E00013F4807F27D0A368012B35D0052B3CD077
:1024F0004FF0B043D3F8902022F00102C3F89020AF
:10250000D3F8902022F00402C3F89020A368DBB334
:10251000FFF7B4FA05464FF0B043D3F8903013F00C
:10252000020F44D1FFF7AAFA401B41F288339842C8
:10253000F1D903203CE1FFF7B5FCFFF79FFA054610
:102540009E4B1B6813F4807FCDD1FFF797FA401B99
:102550000228F5D903202BE14FF0B042D2F8903099
:1025600043F00103C2F89030D0E74FF0B043D3F806
:10257000902042F00402C3F89020D3F8902042F05B
:102580000102C3F89020C1E7FFF778FA05464FF043
:10259000B043D3F8903013F0020F08D0FFF76EFA73
:1025A000401B41F288339842F1D9032000E12368AF
:1025B00013F0400F33D0A36AC3B14FF0B042D2F84A
:1025C000983043F00103C2F89830FFF757FA0546F8
:1025D0004FF0B043D3F8983013F0020F1FD1FFF73C
:1025E0004DFA401B0228F3D90320E1E04FF0B0423E
:1025F000D2F8983023F00103C2F89830FFF73EFA82
:1026000005464FF0B043D3F8983013F0020F06D0D0
:10261000FFF734FA401B0228F3D90320C8E0E36A2D
:10262000002B00F0C4804FF0B042916801F00C0123
:10263000D268022B19D00C2900F0BD804FF0B042B7
:10264000136823F080731360FFF718FA04464FF005
:10265000B0431B6813F0007F00F09780FFF70EFA7D
:10266000001B0228F3D90320A2E002F00303206B31
:1026700083420AD00C2900F09C804FF0B0431B68C5
:1026800013F0806F22D0012092E002F07003606BA3
:102690008342EFD1C2F30623A06B8342EAD102F456
:1026A0007813E06B8342E5D102F06063206C8342D3
:1026B000E0D102F06042636C9A42DBD14FF0B0434C
:1026C0001B6813F0007F44D0002071E04FF0B0424F
:1026D000136823F080731360FFF7D0F905464FF0BD
:1026E000B0431B6813F0007F06D0FFF7C7F9401B0B
:1026F0000228F4D903205BE04FF0B042D3683049A0
:102700001940236B606B0343A06B43EA0023E06B2B
:102710000343206C0343606C03431943D160136887
:1027200043F080731360D36843F08053D360FFF7A6
:10273000A5F904464FF0B0431B6813F0007F06D1A3
:10274000FFF79CF9001B0228F4D9032030E0002099
:102750002EE04FF0B0431A6842F080721A60DA68D7
:1027600042F08052DA60FFF789F904464FF0B04337
:102770001B6813F0007F06D1FFF780F9031B022BC3
:10278000F4D9032014E0002012E04FF0B042D168E9
:102790000C4B0B40D36000200AE001207047012061
:1027A00006E0012004E0012002E0012000E000201A
:1027B00038BD0120FCE70120FAE700BF0004005803
:1027C0008C80C111FCFFFEEE002800F0278170B55F
:1027D0000C460546934B1B6803F007038B422DD331
:1027E0002B6813F0020F3FD12B6813F0200F53D149
:1027F0002B6813F0400F6AD12B6813F0040F40F0E0
:1028000083802B6813F0080F40F097802B6813F03B
:10281000010F00F0DE806B68022B00F0A880032B14
:1028200000F0AD80002B40F0B2804FF0B042126853
:1028300012F0020F40F0B1800120EEE0794A1368F7
:1028400023F007030B431360FFF718F90646754B97
:102850001B6803F00703A342C2D0FFF70FF9801BE8
:102860000228F4D90320D8E0AB684FF0B0418A6861
:1028700022F0F00213438B60FFF700F906464FF099
:10288000B0439B6813F4803FAED1FFF7F7F8801B8D
:102890000228F4D90320C0E06B694FF0B041D1F8B1
:1028A000082122F0F0021343C1F80831FFF7E6F8DF
:1028B00006464FF0B043D3F8083113F4003F97D1E8
:1028C000FFF7DCF8801B0228F3D90320A5E0A969F3
:1028D0004FF0B042D2F8083123F00F0343EA11134E
:1028E000C2F80831FFF7CAF806464FF0B043D3F8F4
:1028F000083113F4803F7FF47FAFFFF7BFF8801BF0
:102900000228F2D9032088E0EB684FF0B0418A68D2
:1029100022F4E06213438B60FFF7B0F806464FF0F5
:10292000B0439B6813F4003F7FF46BAFFFF7A6F84A
:10293000801B0228F3D903206FE029694FF0B042D1
:10294000936823F4605343EAC1039360FFF796F85A
:1029500006464FF0B0439B6813F4802F7FF456AFC8
:10296000FFF78CF8801B0228F3D9032055E04FF0C5
:10297000B042126812F4003F0FD101204DE04FF039
:10298000B042126812F0007F07D1012045E04FF0FD
:10299000B042126812F4806F42D04FF0B0418A68A2
:1029A00022F0030213438B60FFF768F806464FF0EE
:1029B000B0439B6803F00C036A68B3EB820F08D046
:1029C000FFF75CF8801B41F288339842EFD903206F
:1029D00023E0144B1B6803F00703A34215D9114AE7
:1029E000136823F0070323431360FFF747F80546F6
:1029F0000C4B1B6803F00703A34206D0FFF73EF819
:102A0000401B0228F4D9032007E0FFF741FB064BE7
:102A10001860FFF739F8FEF7E7FF70BD0120704737
:102A20000120FAE7004000580C00002008B5FFF72D
:102A30002FFB4FF0B0439B68C3F30223034A52F8C5
:102A4000233003F01F03D84008BD00BFD84C000856
:102A500008B5FFF71DFB4FF0B0439B68C3F3C223DB
:102A6000034A52F8233003F01F03D84008BD00BFCB
:102A7000D84C00084FF0B041D1F88830020902F478
:102A80007F2223EA0203000100F47F200343C1F800
:102A90008830704770B505464FF0B042136823F098
:102AA00080631360FEF7EAFF04464FF0B0431B68F3
:102AB00013F0006F06D0FEF7E1FF001B0228F4D9E7
:102AC000032400E000240CB1204670BD4FF0B04359
:102AD0001A6922F4FE42296842EA01221A611A693F
:102AE00022F4781269680A431A611A6842F0806217
:102AF0001A60FEF7C3FF06464FF0B0431B6813F0A1
:102B0000006F05D1FEF7BAFF801B0228F4D9032419
:102B1000002CD9D14FF0B042136929690B431361DE
:102B2000D2E770B505464FF0B042136823F08063DA
:102B30001360FEF7A3FF04464FF0B0431B6813F089
:102B4000006F06D0FEF79AFF001B0228F4D9032479
:102B500000E000240CB1204670BD4FF0B0431A696C
:102B600022F4FE42296842EA01221A611A6922F01F
:102B70006062A9680A431A611A6842F080621A60AA
:102B8000FEF77CFF06464FF0B0431B6813F0006F62
:102B900005D1FEF773FF801B0228F4D90324002C13
:102BA000D9D14FF0B042136929690B431361D2E7C1
:102BB00070B505464FF0B042136823F08063136090
:102BC000FEF75CFF04464FF0B0431B6813F0006F44
:102BD00006D0FEF753FF001B0228F4D9032400E0BF
:102BE00000240CB1204670BD4FF0B0431A6922F4A6
:102BF000FE42296842EA01221A611A6922F0604203
:102C0000E9680A431A611A6842F080621A60FEF7A6
:102C100035FF06464FF0B0431B6813F0006F05D137
:102C2000FEF72CFF801B0228F4D90324002CD9D1F5
:102C30004FF0B042136929690B431361D2E770B5B5
:102C40000446036813F0400F2FD0036BB3F5800FD9
:102C500021D00AD833B90430FFF71CFF064658B11B
:102C6000054624E001252E4621E0B3F5000F1AD0D9
:102C7000B3F5400F0CD10026236B4FF0B041D1F8D3
:102C8000882022F440021343C1F8883000250EE06A
:102C900001252E460BE04FF0B042D36843F4803359
:102CA000D3600026E8E70026E6E700252E462368E5
:102CB00013F4006F0AD04FF0B043D3F8905005F4EE
:102CC0004075236CAB4240F0B7803546236813F063
:102CD000010F09D0A3694FF0B041D1F8882022F04C
:102CE00003021343C1F88830236813F0020F09D0A0
:102CF000E3694FF0B041D1F8882022F440621343D9
:102D0000C1F88830236813F0100F0CD0A06A4FF080
:102D1000B041D1F88830020C120423EA020343EADE
:102D20000043C1F88830236813F0200F0CD0E06A0C
:102D30004FF0B041D1F88830020C120423EA0203AC
:102D400043EA0043C1F88830236813F0040F40F0D1
:102D5000B480236813F0080F40F0B380236813F4A5
:102D6000807F13D0636B4FF0B041D1F8882022F000
:102D700040621343C1F88830636BB3F1006F00F019
:102D8000A480636BB3F1806F00F0A480236813F418
:102D9000007F17D0A36BB3F1804F05D0B3F1004F84
:102DA00002D0002B40F09E804FF0B041D1F8882037
:102DB00022F040421343C1F88830A36BB3F1C05FE7
:102DC00000F0A280236813F4806F13D0E36B4FF000
:102DD000B041D1F8882022F040521343C1F8883026
:102DE000E36BB3F1005F00F09680E36BB3F1805FBB
:102DF00000F09680236813F4805F09D0636C4FF075
:102E0000B041D1F8942022F440421343C1F89430E9
:102E1000236813F4005F0DD0E26C4FF0B043596AA1
:102E200021F030010A435A62A26C596A21F0030171
:102E30000A435A62284670BDFFF734F85DB9236C27
:102E40004FF0B041D1F8902022F440721343C1F802
:102E5000903035463AE74FF0B043D3F89020D3F89E
:102E6000901041F48031C3F89010D3F8901021F401
:102E70008031C3F8901022F44072216C0A43C3F8E9
:102E80009020D3F8903013F0010F12D0FEF7F6FD2A
:102E900005464FF0B043D3F8903013F0020F0AD13B
:102EA000FEF7ECFD401B41F288339842F1D903252F
:102EB0000CE735460AE7354608E7206AFFF7DAFDF2
:102EC00047E7606AFFF7D6FD48E7CB6843F08073B9
:102ED000CB6056E7201DFFF724FE00283FF456AFD5
:102EE000054653E723F080534FF0B042D2F88810E4
:102EF00021F04041C2F88810D2F8881021F04061DA
:102F00000B43C2F8883058E74FF0B042D36843F023
:102F10008073D36056E7CB6843F48033CB6064E7BB
:102F2000201DFFF745FE00283FF464AF054661E72A
:102F30004FF0B042136843F0040313607047000081
:102F400030B4026A036A23F00103036244688369B0
:102F500023F4803323F073030D681D4322F0020233
:102F60008B681343144A904207D002F5E052904216
:102F700003D0A2F58062904205D123F00803CA680D
:102F80001A4322F004030C4A904207D002F5C052C3
:102F9000904203D002F58062904205D124F440743F
:102FA0004A6922438C691443446085614A684263DC
:102FB000036230BC704700BF002C014030B4036A8C
:102FC000026A22F4807202624468C26922F480328A
:102FD00022F073020D68154323F400738A6843EAF4
:102FE0000223104A904207D00F4A90420BD002F5BC
:102FF000806290420FD106E023F40063CA6843EA7E
:10300000022323F4806324F440544A6944EA0214FE
:103010008A6944EA02144460C5614A68C263036273
:1030200030BC7047002C01400044014030B4026ABB
:10303000036A23F4805303624468C36923F08073F6
:1030400023F4E6430D6843EA052322F400528D6819
:1030500042EA05320B4DA84207D005F5C055A842FB
:1030600003D005F58065A84204D124F480444D695D
:1030700044EA85144460C3614B680364026230BC57
:10308000704700BF002C014030B4036A026A22F48A
:10309000803202624468426D22F4803222F0700273
:1030A0000D682A4323F400338D6843EA05430B4D32
:1030B000A84207D005F5C055A84203D005F58065A4
:1030C000A84204D124F480344D6944EA05244460C4
:1030D00042654A688265036230BC7047002C01403B
:1030E00030B4026A036A23F4801303624468436DB8
:1030F00023F0807323F4E0430D6843EA052322F4B0
:1031000000128D6842EA05520B4DA84207D005F522
:10311000C055A84203D005F58065A84204D124F427
:1031200080244D6944EA8524446043654B68C36547
:10313000026230BC704700BF002C014010B4036A2B
:10314000046A24F001040462846924F0F00C4CEA5F
:10315000021223F00A030B43826103625DF8044B01
:10316000704710B4036A046A24F01004046284698E
:1031700024F4704C4CEA023223F0A00343EA01131A
:10318000826103625DF8044B7047836823F4401347
:1031900023F070030B4343F0070383607047000084
:1031A00090F83D30DBB2012B1DD1022380F83D3079
:1031B0000368104A934208D0B3F1804F05D01A68D3
:1031C00042F001021A600020704799680A4A0A40DA
:1031D000062A0AD0B2F5803F09D01A6842F00102EF
:1031E0001A600020704701207047002070470020BF
:1031F000704700BF002C014007000100704700002D
:1032000003681A4A904202D0B0F1804F03D123F0F4
:1032100070034A681343154A90420AD0B0F1804FB8
:1032200007D002F5C052904203D002F5806290426E
:1032300003D123F44073CA68134323F080034A691F
:10324000134303608B68C3620B688362074B984229
:1032500007D003F5C053984203D003F5806398422A
:1032600001D10B690363012343617047002C0140C6
:1032700060B310B5044690F83D3013B3022384F8D0
:103280003D30214651F8040BFFF7BAFF012384F8C3
:10329000483084F83E3084F83F3084F8403084F879
:1032A000413084F8423084F8433084F8443084F864
:1032B000453084F8463084F8473084F83D300020AB
:1032C00010BD80F83C30FEF707FAD7E701207047C1
:1032D00060B310B5044690F83D3013B3022384F870
:1032E0003D30214651F8040BFFF78AFF012384F893
:1032F000483084F83E3084F83F3084F8403084F819
:10330000413084F8423084F8433084F8443084F803
:10331000453084F8463084F8473084F83D3000204A
:1033200010BD80F83C30FFF769FFD7E701207047F8
:1033300030B4036A026A22F01002026244688269B1
:1033400022F0807222F4E6420D6842EA052223F060
:1033500020038D6843EA0513104DA84207D0104D95
:10336000A8420BD005F58065A8420FD106E023F0F6
:103370008003CD6843EA051323F0400324F440643E
:103380004D6944EA85048D6944EA8504446082619C
:103390004A688263036230BC704700BF002C014062
:1033A0000044014038B590F83C30012B00F0958086
:1033B00004460D46012380F83C30142A00F2888030
:1033C000DFE802F00B8686861F8686863486868630
:1033D000488686865D86868671000068FFF7B0FDA8
:1033E0002268936943F0080393612268936923F08C
:1033F000040393612268936929690B439361002058
:1034000067E00068FFF794FF2268936943F4006364
:1034100093612268936923F48063936122689369BE
:10342000296943EA01239361002052E00068FFF715
:10343000C5FD2268D36943F00803D3612268D369CC
:1034400023F00403D3612268D36929690B43D36154
:1034500000203EE00068FFF7E9FD2268D36943F4ED
:103460000063D3612268D36923F48063D361226847
:10347000D369296943EA0123D361002029E0006868
:10348000FFF702FE2268536D43F00803536522687C
:10349000536D23F0040353652268536D29690B4370
:1034A0005365002015E00068FFF71AFE2268536D8F
:1034B00043F4006353652268536D23F480635365BE
:1034C0002268536D296943EA01235365002000E017
:1034D0000120002384F83C3038BD0220FCE710B402
:1034E000846824F47F4C42EA03220A4342EA0C0235
:1034F00082605DF8044B704790F83C30012B76D029
:1035000010B50446012380F83C30022380F83D309A
:1035100002689068374B034093600B68602B4CD077
:1035200029D8402B54D00CD9502B22D1CA684968D5
:103530002068FFF703FE50212068FFF726FE0020D9
:1035400005E0202B0DD009D9302B0AD00120012312
:1035500084F83D30002384F83C3010BD0BB1102BB3
:1035600005D119462068FFF710FE0020EFE7012083
:10357000EDE70120EBE7B3F5805F34D0B3F5005FF2
:103580000CD1CB684A6889682068FFF7A8FF2268D9
:10359000936843F4804393600020D8E7702B24D1D4
:1035A000CB684A6889682068FFF799FF22689368AA
:1035B00043F0770393600020C9E7CA684968206830
:1035C000FFF7CFFD60212068FFF7DFFD0020BEE799
:1035D000CA6849682068FFF7B1FD40212068FFF7FD
:1035E000D4FD0020B3E70020B1E70120AFE70220BF
:1035F000704700BF8800CEFF01F01F014FF0010CA3
:103600000CFA01FC036A23EA0C030362036A8A4092
:10361000134303627047000010B5044610293BD8DD
:10362000DFE801F0093A3A3A1E3A3A3A253A3A3A8C
:103630002C3A3A3A330090F83E30DBB2013B18BFE7
:103640000123002B75D1102961D8DFE801F02C602F
:1036500060605060606054606060586060605C00F2
:1036600090F83F30DBB2013B18BF0123E9E790F847
:103670004030DBB2013B18BF0123E2E790F8413054
:10368000DBB2013B18BF0123DBE790F84230DBB22D
:10369000013B18BF0123D4E790F84330DBB2013B74
:1036A00018BF0123CDE7022384F83E3001222068B1
:1036B000FFF7A2FF2368224A934207D002F5C052C7
:1036C000934203D002F58062934203D15A6C42F4D4
:1036D00000425A6423681A4A93421CD0B3F1804FC7
:1036E00019D01A6842F001021A60002022E0022379
:1036F00084F83F30DAE7022384F84030D6E702232B
:1037000084F84130D2E7022384F84230CEE7022326
:1037100084F84330CAE799680A4A0A40062A0AD060
:10372000B2F5803F09D01A6842F001021A60002009
:1037300000E0012010BD0020FCE70020FAE700BFF8
:10374000002C01400700010090F83C20012A2BD0FA
:1037500030B40346012280F83C20022280F83D204C
:10376000006842688468114DA84218D022F07002A7
:103770000D682A4342601A680C48824202D0B2F1B6
:10378000804F04D124F08004896821439160012294
:1037900083F83D20002083F83C0030BC704722F4C1
:1037A00070024D682A43E1E702207047002C014077
:1037B00090F83C30012B47D010B40246012380F82A
:1037C0003C30CB6823F440738868034323F4806360
:1037D0004868034323F400630868034323F48053D9
:1037E0000869034323F400534869034323F48043E7
:1037F000086B034323F47023886943EA004310688D
:10380000124CA04209D0114CA0420BD043640020BE
:1038100082F83C005DF8044B704723F08053CC697C
:103820002343F0E723F470038C6A43EA045323F044
:1038300080730C6A234323F000734C6A234323F004
:103840000053C96A0B43E1E702207047002C014096
:10385000026852E8003F23F4907342E800310029E7
:10386000F6D1026802F1080353E8003F23F08053C9
:1038700023F00103083242E800310029F1D1C36E80
:10388000012B06D02023C0F88C300023C366436789
:103890007047026852E8003F23F0100342E800310D
:1038A0000029F6D1EEE7000070B504460168836890
:1038B0000269134342691343C269134308688B4A80
:1038C00002401A430A602268536823F44053E168B7
:1038D0000B435360A1692268854B9A4201D0236A49
:1038E0001943936823F06E4323F430630B439360D2
:1038F0002268D36A23F00F03616A0B43D362226804
:103900007C4B9A4214D07A4B9A4225D010237849A6
:103910008A4240D0E069B0F5004F7AD0013B072BD6
:1039200000F2D680DFE803F0A5A3D4BED4D4D4C17E
:103930004FF0B043D3F8883003F00303032B09D8CA
:10394000DFE803F002041F060123E0E70423DEE7BB
:103950000823DCE71023DAE74FF0B043D3F88830D0
:1039600003F44063B3F5006F0DD005D86BB1B3F528
:10397000806F0CD10423CAE7B3F5406F09D1082347
:10398000C5E70223C3E70223C1E70023BFE71023F3
:10399000BDE71023BBE7082B00F28A80DFE803F0C5
:1039A000088837883488888805004FF4004003E091
:1039B000FFF73CF800287DD0626A4F4B33F81220A5
:1039C000B0FBF2F3656805EB4501994274D8B3EB9F
:1039D000053F73D8002633463146FDF767F80902E4
:1039E00041EA106100026B08C0182A46334641F1D3
:1039F0000001FDF75BF8A0F54072404B9A425FD89A
:103A00002368D860304664E0FEF7E2FAD2E73C482B
:103A1000D2E7013B072B55D8DFE803F00604542614
:103A20005454540A364803E0FFF712F800284BD0EC
:103A3000626A314B33F81230B0FBF3F0626853081E
:103A400003EB4003B3FBF2F3A3F110014FF6EF7267
:103A500091423BD89AB222F00F02C3F342031343C0
:103A60002268D360002034E0FEF7B2FADEE7244893
:103A700002E0FEF7EDFFA8B3626A1F4B33F8123085
:103A8000B0FBF3F0636800EB5300B0FBF3F0A0F180
:103A900010024FF6EF739A4226D8236880B2D8609E
:103AA000002016E0FEF794FAE5E74FF40040E3E764
:103AB00001200EE000200CE001200AE0012008E0D7
:103AC000012006E0012004E0002002E0012000E0E7
:103AD00001200123A4F86A30A4F86830002363674A
:103AE000A36770BD0020F4E70120F2E7F369FFCF80
:103AF0000080004000380140384D0008FFFC0F00F6
:103B00000024F400836A13F0080F06D0026853689B
:103B100023F40043816B0B435360836A13F0010F5E
:103B200006D00268536823F40033C16A0B43536024
:103B3000836A13F0020F06D00268536823F48033BF
:103B4000016B0B435360836A13F0040F06D00268C5
:103B5000536823F48023416B0B435360836A13F053
:103B6000100F06D00268936823F48053C16B0B4397
:103B70009360836A13F0200F06D00268936823F4E1
:103B80000053016C0B439360836A13F0400F0AD01B
:103B90000268536823F48013416C0B435360436CF9
:103BA000B3F5801F0BD0836A13F0800F06D0026834
:103BB000536823F40023C16C0B43536070470268C1
:103BC000536823F4C003816C0B435360EBE72DE98A
:103BD000F84305460F4616469946DDF820802B68C7
:103BE000DC6937EA04040CBF01240024B44232D15A
:103BF000B8F1FF3FF3D0FDF741FFA0EB09004045CE
:103C00002CD8B8F1000F2BD02B681A6812F0040FD3
:103C1000E5D0DA6912F0080F11D1DA6912F4006FF9
:103C2000DDD04FF400621A622846FFF711FE202310
:103C3000C5F89030002385F8843003200CE0082478
:103C40001C622846FFF704FEC5F89040002385F863
:103C50008430012000E00020BDE8F8830320FBE76A
:103C60000320F9E730B583B004460023C0F8903054
:103C7000FDF704FF05462268126812F0080F10D104
:103C800023681B6813F0040F28D12023C4F8883060
:103C9000C4F88C300020E066206784F8840003B00C
:103CA00030BD6FF07E430093034600224FF40011B5
:103CB0002046FFF78CFF0028E2D0226852E8003F40
:103CC00023F0800342E800310029F6D12023C4F814
:103CD0008830002384F884300320E0E76FF07E43CF
:103CE00000932B4600224FF480012046FFF76FFF20
:103CF0000028CAD0226852E8003F23F4907342E8BB
:103D000000310029F6D1226802F1080353E8003F90
:103D100023F00103083242E800310029F3D12023C7
:103D2000C4F88C30002384F884300320B7E778B3DC
:103D300010B50446D0F888300BB32423C4F888307B
:103D40002268136823F001031360A36AE3B92046D5
:103D5000FFF7AAFD012811D02268536823F490438D
:103D600053602268936823F02A03936022681368E3
:103D700043F0010313602046FFF774FF10BD80F885
:103D80008430FDF77FFDD8E72046FFF7BBFEDEE776
:103D900001207047436E2BB90123A0F86A30A0F8C8
:103DA0006830704730B403689A68C2F34262996819
:103DB000490F094D6B5CDB00084C615C93FBF1F330
:103DC000A0F86A30AB5CDB00A25C93FBF2F3A0F8D6
:103DD000683030BC704700BF584D0008504D000897
:103DE00090F88430012B18D0012380F884302423EC
:103DF000C0F8883003681A68196821F00101196059
:103E000022F000520023436601680A602022C0F8B5
:103E1000882080F88430184670470220704738B5F3
:103E200090F88430012B1DD00446012380F88430A3
:103E30002423C0F8883003681D681A6822F0010244
:103E40001A600268936823F0604319439160FFF79A
:103E5000A1FF23681D602023C4F88830002084F867
:103E6000840038BD0220FCE738B590F88430012B7F
:103E70001DD00446012380F884302423C0F8883004
:103E800003681D681A6822F001021A6002689368CC
:103E900023F0606319439160FFF77CFF23681D6086
:103EA0002023C4F88830002084F8840038BD022024
:103EB000FCE7B0F8403023F47E535B045B0CA0F8C1
:103EC00040300020704784B0844601A880E80E008E
:103ED0000123ACF840300020ACF84000ACF84400BE
:103EE000ACF8500004B07047D458C4500433C41820
:103EF0008C42F9D37047036004308842FBD370478B
:103F00000C488546FDF77EFB0B480C490C4A002304
:103F1000FFF7EDFF0B480C490C4A0023FFF7E7FFC2
:103F20000B480C490023FFF7E8FF00F03FF8FDF7CE
:103F30001BFAFEE7000003200800002068000020B4
:103F4000A44D00080000032000000320044E0008D8
:103F50006800002020060020FEE700000EB400B537
:103F60009CB01DAB029006906FF00041094807918C
:103F70000491094953F8042B05910068019302A9A3
:103F800000F08EF9029B00221A701CB05DF804EB61
:103F900003B07047180000200802FFFF02440346E8
:103FA000934200D1704703F8011BF9E770B50D4D3E
:103FB0000D4C641BA4100026A64209D10B4D0C4CDD
:103FC00000F02EFE641BA4100026A64205D170BD91
:103FD00055F8043B98470136EEE755F8043B9847FF
:103FE0000136F2E79C4D00089C4D00089C4D0008EE
:103FF000A04D00087047704738B50546002941D0EC
:1040000051F8043C0C1F002BB8BFE41800F0E0F896
:104010001D4A136833B9636014602846BDE8384010
:1040200000F0DCB8A34208D9206821188B4201BFF8
:1040300019685B6809182160EDE71A465B680BB1E7
:10404000A342FAD911685018A0420BD1206801444C
:10405000501883421160E0D118685B6853600844CF
:104060001060DAE702D90C232B60D6E7206821180C
:104070008B4204BF19685B68636004BF0918216044
:104080005460CAE738BD00BF1806002070B50F4E57
:104090000C463168054611B900F0B2FB306021468C
:1040A000284600F0ADFB431C03D14FF0FF342046FF
:1040B00070BDC41C24F00304A042F8D0211A284685
:1040C00000F09EFB0130F2D1EFE700BF14060020A4
:1040D0002DE9F843CD1C25F0030508350C2D38BF1C
:1040E0000C25002D064601DBA94204D90C233360C0
:1040F0000020BDE8F883DFF8D48000F069F8D8F834
:1041000000301C4644BB29463046FFF7BFFF431C26
:10411000044658D1D8F800402746002F43D1002C40
:104120004BD023683946304604EB030900F068FBA6
:10413000814542D121686D1A29463046FFF7A6FF16
:1041400001303AD023682B442360D8F800305A68F5
:1041500062BBC8F800700FE02268521B20D40B2A03
:1041600017D96119A342256018BF5960636808BF59
:10417000C8F8001062514B60304600F02FF804F18F
:104180000B00231D20F00700C21A1CBF1B1AA350EE
:10419000AFE76268A3420CBFC8F800205A60EBE7A3
:1041A00023466468AEE73C467F68B6E71A465B681C
:1041B000A342FBD100235360DEE70C23336030467B
:1041C00000F00CF894E70560D6E700BF1806002061
:1041D0000148FFF70FBF00BF100600200148FFF79E
:1041E0000ABF00BF100600202DE9F0478E681F4669
:1041F000BE420B6882460C4690462DD8B1F90C2081
:1042000012F4906F26D06569096905EB4505A3EBAB
:10421000010905EBD5757B1C4B446D109D4238BFE1
:104220001D46530527D52946FFF752FF064660B3C2
:1042300021694A4600F0F4FAA38923F4906343F01D
:104240008003A381266165614E44A5EB09052660C4
:10425000A5603E46BE4200D93E46206832464146F1
:1042600000F0B4FAA3689B1BA36023683344236067
:104270000020BDE8F0872A4600F0E0FA0646002854
:10428000E0D121695046FFF7B7FE0C23CAF8003091
:10429000A38943F04003A3814FF0FF30E9E700001A
:1042A0002DE9F04F98468B891B069DB007460D46B9
:1042B000144610D50B6973B94021FFF709FF286038
:1042C000286130B90C233B604FF0FF301DB0BDE8D2
:1042D000F08F40236B610023099320238DF8293050
:1042E000CDF80C803023DFF89C818DF82A304FF018
:1042F000010923469A4613F8012B0AB1252AF9D160
:10430000BAEB040B0BD05B46224629463846FFF732
:104310006BFF013000F0A780099A5A4409929AF87D
:104320000030002B00F09F8000234FF0FF32CDE9DA
:1043300005230AF1010A049307938DF853301A9369
:104340005446052214F8011B4E48FBF7F9FE049A67
:10435000D8B9D00644BF20238DF85330110744BF8D
:104360002B238DF853309AF800302A2B15D0079A5A
:10437000544600204FF00A0C214611F8013B303B17
:10438000092B4BD9B0B1079214E0A0EB080309FA4E
:1043900003F313430493A246D2E7039B191D1B6842
:1043A0000391002BBBBF5B4242F0020207930793CD
:1043B000B8BF049223782E2B0AD163782A2B32D1EE
:1043C000039B1A1D1B68039243EAE37302340593AF
:1043D000DFF8C0A0217803225046FBF7B1FE38B1C8
:1043E000049BA0EB0A004022824013430134049353
:1043F00014F8011B24488DF828100622FBF7A0FEB4
:10440000002836D0214B1BBB039B073323F0070347
:1044100008330393099B334409936AE70CFB023288
:104420000C460120A8E700230134059319464FF0FC
:104430000A0C204610F8012B303A092A03D9002B28
:10444000C6D00591C4E70CFB012104460123F0E727
:1044500003AB00932A460E4B04A93846AFF3008005
:10446000421C0646D6D1AB895B063FF52DAF0998B5
:104470002CE703AB00932A46054B04A9384600F00D
:1044800079F8EDE7604D00086A4D00080000000073
:10449000E9410008664D00082DE9F04716469846A8
:1044A0008A680B69DDF820909342B8BF13463360E9
:1044B00091F8432007460C460AB101333360236864
:1044C000990642BF336802333360256815F006054C
:1044D00006D104F1190AE36832689B1AAB4226DC64
:1044E00094F843302268003B18BF012392062BD476
:1044F00004F1430241463846C84701301ED02368C4
:10450000226903F00603042B02BFE5683368ED1A45
:10451000A3680CBF25EAE57500259342C4BF9B1A2A
:10452000ED1800261A34B5421AD1002008E0012304
:10453000524641463846C847013003D14FF0FF305C
:10454000BDE8F0870135C6E7E1185A1C302081F834
:104550004300224494F8451082F843100233C7E721
:104560000123224641463846C8470130E6D001368D
:10457000D9E700002DE9FF470F7E0C9E782F91466A
:1045800080460C469A4601F1430207D8622F0AD8AA
:10459000002F00F0DD80582F00F0C38004F14206A8
:1045A00084F842703AE0A7F16303152BF6D801A115
:1045B00051F823F00D460008214600089D450008EB
:1045C0009D4500089D4500089D45000821460008BE
:1045D0009D4500089D4500089D4500089D45000833
:1045E00037470008AF460008EF4600089D45000821
:1045F0009D450008594700089D450008AF46000842
:104600009D4500089D450008F746000833681A1DBF
:104610001B68326004F1420684F842300123A8E0AE
:1046200031682368081D30601E0601D50D6803E05F
:104630005D06FBD5B1F900506168002D78DA2D20B8
:10464000002984F84300A1602DDA5E486D420A23F8
:104650001646B5FBF3F103FB1157C75D06F8017D64
:104660002F46BB420D46F4D9082B0BD12368DF0738
:1046700008D5236961689942DEBF302306F8013C02
:1046800006F1FF36921B2261CDF800A04B4603AA2B
:1046900021464046FFF700FF01306FD14FF0FF3059
:1046A00004B0BDE8F08723F004032360CDE7216860
:1046B0003368080653F8045B02D4490648BFADB21C
:1046C0006F2F4048336014BF0A230823002184F869
:1046D00043106668A660002EBADB216821F0040151
:1046E0002160002DB4D1002EB2D11646BCE723685C
:1046F00043F0200323603448782784F8457023680A
:1047000031681F0651F8045B02D45F0648BFADB2A2
:104710003160D90744BF43F0200323601DB110234B
:10472000D4E72848E9E7236823F020032360F6E76D
:1047300024480A23CDE7336825686169181D306075
:104740002E061B6801D5196002E06806FBD51980AA
:1047500000232361164697E733681A1D32601E68EE
:10476000626800213046FBF7EBFC08B1801B6060FB
:1047700063682361002384F8433085E72369324668
:1047800049464046D047013088D023689B0714D45F
:10479000E068039B9842B8BF184681E70123324680
:1047A00049464046D04701303FF478AF0135E368D1
:1047B00003995B1AAB42F1DCEAE7002504F1190624
:1047C000F5E700BF714D0008824D0008884210B522
:1047D00001EB020402D98442234607D8431EA142BA
:1047E00008D011F8012B03F8012FF8E70244014625
:1047F0008A4200D110BD13F8014D02F8014DF7E7D0
:1048000038B5064D0023044608462B6000F09CF89E
:10481000431C02D12B6803B1236038BD0C06002075
:104820000A44914200F1FF3300D1704710B511F8EE
:10483000014B03F8014F9142F9D110BD2DE9F04130
:10484000804615460C4621B9BDE8F0411146FFF7F8
:104850003FBC2AB9FFF7D0FB00242046BDE8F08119
:1048600000F01AF88542064602D8B5EB500FF4D88E
:1048700029464046FFF72CFC07460028ECD0B542FD
:104880002A46214628BF3246FFF7CAFF2146404646
:10489000FFF7B2FB3C46E0E751F8043C181F002B41
:1048A000BCBF0B58C018704753EC102BC3F30A5011
:1048B000A0F2FF31132910B59C46964619DC002959
:1048C00011DB2048084100EA0304144316D04FF4DA
:1048D00000230B41634423EA000C002163460A468F
:1048E00043EC102B10BD013103F0004C24D000210B
:1048F000F4E7332905DDB1F5806F16D043EC102BBA
:1049000010BDA0F213404FF0FF3424FA00F0104223
:10491000F4D00123C1F1330103FA01F111EB0E01CF
:1049200028BF9C4421EA0001D8E710461946FBF74E
:104930005DFC41EC100B10BD4CF07F5C4CF4401C56
:104940000021CBE7FFFF0F00044A05491368002B45
:1049500008BF0B4618441060184670471C0600201C
:10496000200600202DE9F047089D0C46002B4ED173
:1049700094468C458646B2FA82F262D94AB1C2F1B7
:104980002003914020FA03F30CFA02FC194300FAC9
:1049900002FE4FEA1C471FFA8CF6B1FBF7F44FEA10
:1049A0001E4307FB141143EA014304FB06F199423D
:1049B0000AD91CEB030304F1FF3080F01281994205
:1049C00040F20F81023C6344591A1FFA8EF3B1FB87
:1049D000F7F007FB101143EA014300FB06F69E4285
:1049E0000AD91CEB030300F1FF3180F0FC809E42EA
:1049F00040F2F980634402389B1B40EA04400021E6
:104A00001DB1D3400022C5E90032BDE8F0878B42DA
:104A100005D90DB1C5E9000100210846F5E7B3FA53
:104A200083F1002946D1A34202D39042C0F0F08026
:104A3000861A64EB03030120002DE6D0C5E900636C
:104A4000E3E7002A40F09080A1EB0C044FEA1C48F9
:104A50001FFA8CF70121B4FBF8F64FEA1E4308FB5E
:104A6000164443EA044307FB06F0984208D91CEBBE
:104A7000030306F1FF3402D2984200F2CD802646AD
:104A80001C1A1FFA8EF3B4FBF8F008FB104443EA3B
:104A9000044300FB07F79F4208D91CEB030300F116
:104AA000FF3402D29F4200F2B0802046DB1B40EA76
:104AB0000640A5E7C1F120068B4022FA06F71F4306
:104AC00020FA06FC04FA01F343EA0C03F44000FA6E
:104AD00001F8380C4FEA1349B4FBF0FE1FFA87FCCB
:104AE00000FB1E4449EA04440EFB0CF9A14502FAFE
:104AF00001F20AD93C190EF1FF3A80F08480A145F9
:104B000040F28180AEF1020E3C44A4EB09041FFA8E
:104B100083F9B4FBF0F300FB134449EA044403FBBC
:104B20000CFCA44507D93C1903F1FF3067D2A4451A
:104B300065D9023B3C4443EA0E40A0FB0293A4EB40
:104B40000C049C42CE469C4651D34ED055B1B8EB96
:104B50000E0364EB0C0404FA06F6CB401E43CC4073
:104B6000C5E90064002150E7C2F1200320FA03F1F7
:104B70000CFA02FC24FA03F394400C434FEA1C485D
:104B800000FA02FE1FFA8CF7B3FBF8F008FB1031B5
:104B9000230C43EA014300FB07F1994208D91CEBBF
:104BA000030300F1FF362CD299422AD9023863441C
:104BB0005B1AA4B2B3FBF8F108FB113344EA0344D7
:104BC00001FB07F3A34208D91CEB040401F1FF36F3
:104BD00013D2A34211D902396444E41A41EA0041D4
:104BE00039E70446F0E6084606E7C845AED2B9EB19
:104BF000020E63EB070C0138A8E73146EDE70346E8
:104C000099E73046D4E7D6467FE7634402384DE75C
:104C10000646234608460FE7023E634430E700BFDE
:104C2000F8B500BFF8BC08BC9E467047F8B500BF99
:084C3000F8BC08BC9E46704769
:104C380012000000240000003600000040000000C0
:104C4800060000000C00000010000000000000003A
:104C580001000000020000000300000025642E256A
:104C680064202525202025642046202000000000FF
:104C78005365742054656D703A202046202020002A
:104C88005365742054656D703A20256420462000D1
:104C9800A0860100400D0300801A060000350C00B4
:104CA80040420F0080841E0000093D0000127A0077
:104CB8000024F40000366E010048E801006CDC02B4
:104CC80000000000000000000000000000000000DC
:104CD80000000000000000000000000000000000CC
:104CE80001000000020000000300000004000000B2
:104CF80001000000030000000500000001000000A2
:104D080001000000060000000A000000200000006A
:104D1800020000000400000008000000100000006D
:104D280040000000800000000001000000020000B8
:104D3800010002000400060008000A000C00100030
:104D4800200040008000000108040204080101015D
:104D58000101010307010000232D302B2000686C9E
:104D68004C00656667454647003031323334353686
:104D780037383941424344454600303132333435BF
:0C4D8800363738396162636465660000EC
:084D9400ACB3FF7F0100000039
:044D9C00050B0008FB
:044DA000E10A00081C
:104DA4000146000000093D00010000001000000061
:104DB4001C00002000000000D40400203C0500205A
:104DC400A405002000000000000000000000000016
:104DD40000000000000000000000000000000000CF
:104DE40000000000000000000000000000000000BF
:104DF40000000000000000000000000000000000AF
:0400000508003F01AF
:00000001FF
